{
  "_format": "hh-sol-artifact-1",
  "contractName": "GitCareBounty",
  "sourceName": "contracts/GitCareBounty.sol",
  "abi": [
    {
      "inputs": [],
      "stateMutability": "nonpayable",
      "type": "constructor"
    },
    {
      "anonymous": false,
      "inputs": [
        {
          "indexed": true,
          "internalType": "uint256",
          "name": "bountyId",
          "type": "uint256"
        },
        {
          "indexed": true,
          "internalType": "address",
          "name": "completer",
          "type": "address"
        },
        {
          "indexed": false,
          "internalType": "uint256",
          "name": "reward",
          "type": "uint256"
        }
      ],
      "name": "BountyCompleted",
      "type": "event"
    },
    {
      "anonymous": false,
      "inputs": [
        {
          "indexed": true,
          "internalType": "uint256",
          "name": "bountyId",
          "type": "uint256"
        },
        {
          "indexed": true,
          "internalType": "address",
          "name": "creator",
          "type": "address"
        },
        {
          "indexed": false,
          "internalType": "string",
          "name": "title",
          "type": "string"
        },
        {
          "indexed": false,
          "internalType": "uint256",
          "name": "reward",
          "type": "uint256"
        }
      ],
      "name": "BountyCreated",
      "type": "event"
    },
    {
      "anonymous": false,
      "inputs": [
        {
          "indexed": true,
          "internalType": "uint256",
          "name": "bountyId",
          "type": "uint256"
        },
        {
          "indexed": true,
          "internalType": "address",
          "name": "completer",
          "type": "address"
        },
        {
          "indexed": false,
          "internalType": "uint256",
          "name": "amount",
          "type": "uint256"
        }
      ],
      "name": "RewardDistributed",
      "type": "event"
    },
    {
      "inputs": [
        {
          "internalType": "uint256",
          "name": "",
          "type": "uint256"
        }
      ],
      "name": "bounties",
      "outputs": [
        {
          "internalType": "uint256",
          "name": "id",
          "type": "uint256"
        },
        {
          "internalType": "address",
          "name": "creator",
          "type": "address"
        },
        {
          "internalType": "string",
          "name": "title",
          "type": "string"
        },
        {
          "internalType": "string",
          "name": "description",
          "type": "string"
        },
        {
          "internalType": "uint256",
          "name": "reward",
          "type": "uint256"
        },
        {
          "internalType": "bool",
          "name": "isCompleted",
          "type": "bool"
        },
        {
          "internalType": "address",
          "name": "completedBy",
          "type": "address"
        },
        {
          "internalType": "uint256",
          "name": "createdAt",
          "type": "uint256"
        }
      ],
      "stateMutability": "view",
      "type": "function"
    },
    {
      "inputs": [],
      "name": "bountyCount",
      "outputs": [
        {
          "internalType": "uint256",
          "name": "",
          "type": "uint256"
        }
      ],
      "stateMutability": "view",
      "type": "function"
    },
    {
      "inputs": [
        {
          "internalType": "uint256",
          "name": "_bountyId",
          "type": "uint256"
        }
      ],
      "name": "completeBounty",
      "outputs": [],
      "stateMutability": "nonpayable",
      "type": "function"
    },
    {
      "inputs": [
        {
          "internalType": "string",
          "name": "_title",
          "type": "string"
        },
        {
          "internalType": "string",
          "name": "_description",
          "type": "string"
        },
        {
          "internalType": "string[]",
          "name": "_tags",
          "type": "string[]"
        }
      ],
      "name": "createBounty",
      "outputs": [],
      "stateMutability": "payable",
      "type": "function"
    },
    {
      "inputs": [],
      "name": "getAllBounties",
      "outputs": [
        {
          "internalType": "uint256[]",
          "name": "",
          "type": "uint256[]"
        }
      ],
      "stateMutability": "view",
      "type": "function"
    },
    {
      "inputs": [
        {
          "internalType": "string",
          "name": "_tag",
          "type": "string"
        }
      ],
      "name": "getBountiesByTag",
      "outputs": [
        {
          "internalType": "uint256[]",
          "name": "",
          "type": "uint256[]"
        }
      ],
      "stateMutability": "view",
      "type": "function"
    },
    {
      "inputs": [
        {
          "internalType": "uint256",
          "name": "_bountyId",
          "type": "uint256"
        }
      ],
      "name": "getBounty",
      "outputs": [
        {
          "internalType": "uint256",
          "name": "id",
          "type": "uint256"
        },
        {
          "internalType": "address",
          "name": "creator",
          "type": "address"
        },
        {
          "internalType": "string",
          "name": "title",
          "type": "string"
        },
        {
          "internalType": "string",
          "name": "description",
          "type": "string"
        },
        {
          "internalType": "uint256",
          "name": "reward",
          "type": "uint256"
        },
        {
          "internalType": "bool",
          "name": "isCompleted",
          "type": "bool"
        },
        {
          "internalType": "address",
          "name": "completedBy",
          "type": "address"
        },
        {
          "internalType": "uint256",
          "name": "createdAt",
          "type": "uint256"
        },
        {
          "internalType": "string[]",
          "name": "tags",
          "type": "string[]"
        }
      ],
      "stateMutability": "view",
      "type": "function"
    },
    {
      "inputs": [
        {
          "internalType": "address",
          "name": "_user",
          "type": "address"
        }
      ],
      "name": "getUserBounties",
      "outputs": [
        {
          "internalType": "uint256[]",
          "name": "",
          "type": "uint256[]"
        }
      ],
      "stateMutability": "view",
      "type": "function"
    },
    {
      "inputs": [
        {
          "internalType": "address",
          "name": "_user",
          "type": "address"
        }
      ],
      "name": "getUserStats",
      "outputs": [
        {
          "internalType": "uint256",
          "name": "completedBounties",
          "type": "uint256"
        },
        {
          "internalType": "uint256",
          "name": "totalEarned",
          "type": "uint256"
        },
        {
          "internalType": "uint256",
          "name": "reputation",
          "type": "uint256"
        }
      ],
      "stateMutability": "view",
      "type": "function"
    },
    {
      "inputs": [],
      "name": "owner",
      "outputs": [
        {
          "internalType": "address",
          "name": "",
          "type": "address"
        }
      ],
      "stateMutability": "view",
      "type": "function"
    },
    {
      "inputs": [],
      "name": "totalBountiesCreated",
      "outputs": [
        {
          "internalType": "uint256",
          "name": "",
          "type": "uint256"
        }
      ],
      "stateMutability": "view",
      "type": "function"
    },
    {
      "inputs": [],
      "name": "totalRewardsDistributed",
      "outputs": [
        {
          "internalType": "uint256",
          "name": "",
          "type": "uint256"
        }
      ],
      "stateMutability": "view",
      "type": "function"
    },
    {
      "inputs": [
        {
          "internalType": "address",
          "name": "",
          "type": "address"
        },
        {
          "internalType": "uint256",
          "name": "",
          "type": "uint256"
        }
      ],
      "name": "userBounties",
      "outputs": [
        {
          "internalType": "uint256",
          "name": "",
          "type": "uint256"
        }
      ],
      "stateMutability": "view",
      "type": "function"
    },
    {
      "inputs": [
        {
          "internalType": "address",
          "name": "",
          "type": "address"
        }
      ],
      "name": "userStats",
      "outputs": [
        {
          "internalType": "uint256",
          "name": "completedBounties",
          "type": "uint256"
        },
        {
          "internalType": "uint256",
          "name": "totalEarned",
          "type": "uint256"
        },
        {
          "internalType": "uint256",
          "name": "reputation",
          "type": "uint256"
        }
      ],
      "stateMutability": "view",
      "type": "function"
    },
    {
      "inputs": [],
      "name": "withdrawFunds",
      "outputs": [],
      "stateMutability": "nonpayable",
      "type": "function"
    },
    {
      "stateMutability": "payable",
      "type": "receive"
    }
  ],
  "bytecode": "0x608060405234801561001057600080fd5b50600080546001600160a01b0319163317815560018190556002819055600355611a3c8061003f6000396000f3fe6080604052600436106100ec5760003560e01c8063759f23db1161008a578063ab643c0711610059578063ab643c07146102dc578063dc2f8744146102f1578063ee17254614610325578063ee8c4bbf1461033b57600080fd5b8063759f23db146102325780638a65d874146102525780638da5cb5b1461028e578063918169f6146102c657600080fd5b80632b9234b9116100c65780632b9234b9146101425780633e362c96146101755780634e43603a1461018b5780636591a1851461020557600080fd5b8063139005ab146100f857806321929a0b1461011a57806324600fc31461012d57600080fd5b366100f357005b600080fd5b34801561010457600080fd5b506101186101133660046113db565b610370565b005b6101186101283660046114ab565b6105b9565b34801561013957600080fd5b50610118610853565b34801561014e57600080fd5b5061016261015d3660046115d1565b6108f4565b6040519081526020015b60405180910390f35b34801561018157600080fd5b5061016260015481565b34801561019757600080fd5b506101ea6101a63660046115fb565b6001600160a01b0316600090815260056020908152604091829020825160608101845281548082526001830154938201849052600290920154930183905292909190565b6040805193845260208401929092529082015260600161016c565b34801561021157600080fd5b506102256102203660046115fb565b610925565b60405161016c919061161d565b34801561023e57600080fd5b5061022561024d366004611661565b610991565b34801561025e57600080fd5b506101ea61026d3660046115fb565b60056020526000908152604090208054600182015460029092015490919083565b34801561029a57600080fd5b506000546102ae906001600160a01b031681565b6040516001600160a01b03909116815260200161016c565b3480156102d257600080fd5b5061016260025481565b3480156102e857600080fd5b50610225610a7d565b3480156102fd57600080fd5b5061031161030c3660046113db565b610b14565b60405161016c9897969594939291906116ee565b34801561033157600080fd5b5061016260035481565b34801561034757600080fd5b5061035b6103563660046113db565b610c7e565b60405161016c99989796959493929190611755565b8060008111801561038357506001548111155b6103cc5760405162461bcd60e51b8152602060048201526015602482015274109bdd5b9d1e48191bd95cc81b9bdd08195e1a5cdd605a1b60448201526064015b60405180910390fd5b600082815260046020526040902060050154829060ff16156104305760405162461bcd60e51b815260206004820152601860248201527f426f756e747920616c726561647920636f6d706c65746564000000000000000060448201526064016103c3565b60008381526004602081905260408083206005810180543361010081026001600160a81b031990921691909117600117909155928101549151909382156108fc02929190818181858888f19350505050158015610491573d6000803e3d6000fd5b503360009081526005602052604081208054916104ad83611830565b9091555050600481015433600090815260056020526040812060010180549091906104d9908490611849565b909155505060048101546104ec90610fa8565b336000908152600560205260408120600201805490919061050e908490611849565b909155505060048101546003805460009061052a908490611849565b90915550506004810154604051908152339085907f285d0f935b4d6592b80efc46cc3d9eb3e93e27fe245f0a6c2b5b9a9d04800ee79060200160405180910390a3336001600160a01b0316847fab7542bafced3da2d8c881cb2dd1de859fac7c20d3650d2902ad389a64e0888383600401546040516105ab91815260200190565b60405180910390a350505050565b600034116106095760405162461bcd60e51b815260206004820152601d60248201527f526577617264206d7573742062652067726561746572207468616e203000000060448201526064016103c3565b60008351116106525760405162461bcd60e51b81526020600482015260156024820152745469746c652063616e6e6f7420626520656d70747960581b60448201526064016103c3565b60008251116106a35760405162461bcd60e51b815260206004820152601b60248201527f4465736372697074696f6e2063616e6e6f7420626520656d707479000000000060448201526064016103c3565b600180549060006106b383611830565b9091555050600280549060006106c883611830565b909155505060408051610120810182526001805480835233602080850191825284860189815260608601899052346080870152600060a0870181905260c087018190524260e0880152610100870189905293845260049091529490912083518155905191810180546001600160a01b0319166001600160a01b03909316929092179091559151909190600282019061076090826118df565b506060820151600382019061077590826118df565b506080820151600482015560a082015160058201805460c08501516001600160a81b0319909116921515610100600160a81b031916929092176101006001600160a01b03909316830217905560e0830151600683015582015180516107e491600784019160209091019061131e565b5050336000818152600660209081526040808320600180548254808301845592865293909420019190915590549051919250907f64b439309954f148e681118e8f6556d39f6204a461e3307190a6928618ff265590610846908790349061199f565b60405180910390a3505050565b6000546001600160a01b031633146108b75760405162461bcd60e51b815260206004820152602160248201527f4f6e6c79206f776e65722063616e2063616c6c20746869732066756e6374696f6044820152603760f91b60648201526084016103c3565b600080546040516001600160a01b03909116914780156108fc02929091818181858888f193505050501580156108f1573d6000803e3d6000fd5b50565b6006602052816000526040600020818154811061091057600080fd5b90600052602060002001600091509150505481565b6001600160a01b03811660009081526006602090815260409182902080548351818402810184019094528084526060939283018282801561098557602002820191906000526020600020905b815481526020019060010190808311610971575b50505050509050919050565b6060600060015b60015481116109d0576109ab8185610ffa565b156109be57816109ba81611830565b9250505b806109c881611830565b915050610998565b5060008167ffffffffffffffff8111156109ec576109ec6113f4565b604051908082528060200260200182016040528015610a15578160200160208202803683370190505b509050600060015b6001548111610a7357610a308187610ffa565b15610a615780838381518110610a4857610a486119c1565b602090810291909101015281610a5d81611830565b9250505b80610a6b81611830565b915050610a1d565b5090949350505050565b6060600060015467ffffffffffffffff811115610a9c57610a9c6113f4565b604051908082528060200260200182016040528015610ac5578160200160208202803683370190505b50905060015b6001548111610b0e578082610ae16001836119d7565b81518110610af157610af16119c1565b602090810291909101015280610b0681611830565b915050610acb565b50919050565b60046020526000908152604090208054600182015460028301805492936001600160a01b0390921692610b469061185c565b80601f0160208091040260200160405190810160405280929190818152602001828054610b729061185c565b8015610bbf5780601f10610b9457610100808354040283529160200191610bbf565b820191906000526020600020905b815481529060010190602001808311610ba257829003601f168201915b505050505090806003018054610bd49061185c565b80601f0160208091040260200160405190810160405280929190818152602001828054610c009061185c565b8015610c4d5780601f10610c2257610100808354040283529160200191610c4d565b820191906000526020600020905b815481529060010190602001808311610c3057829003601f168201915b50505050600483015460058401546006909401549293909260ff821692506101009091046001600160a01b03169088565b600080606080600080600080606089600081118015610c9f57506001548111155b610ce35760405162461bcd60e51b8152602060048201526015602482015274109bdd5b9d1e48191bd95cc81b9bdd08195e1a5cdd605a1b60448201526064016103c3565b60008b81526004602090815260408083208151610120810183528154815260018201546001600160a01b0316938101939093526002810180549192840191610d2a9061185c565b80601f0160208091040260200160405190810160405280929190818152602001828054610d569061185c565b8015610da35780601f10610d7857610100808354040283529160200191610da3565b820191906000526020600020905b815481529060010190602001808311610d8657829003601f168201915b50505050508152602001600382018054610dbc9061185c565b80601f0160208091040260200160405190810160405280929190818152602001828054610de89061185c565b8015610e355780601f10610e0a57610100808354040283529160200191610e35565b820191906000526020600020905b815481529060010190602001808311610e1857829003601f168201915b50505091835250506004820154602080830191909152600583015460ff811615156040808501919091526101009091046001600160a01b031660608401526006840154608084015260078401805482518185028101850190935280835260a090940193919290919060009084015b82821015610f4f578382906000526020600020018054610ec29061185c565b80601f0160208091040260200160405190810160405280929190818152602001828054610eee9061185c565b8015610f3b5780601f10610f1057610100808354040283529160200191610f3b565b820191906000526020600020905b815481529060010190602001808311610f1e57829003601f168201915b505050505081526020019060010190610ea3565b50505050815250509050806000015181602001518260400151836060015184608001518560a001518660c001518760e001518861010001519a509a509a509a509a509a509a509a509a5050509193959799909294969850565b600067016345785d8a0000821015610fc257506001919050565b6706f05b59d3b20000821015610fda57506005919050565b670de0b6b3a7640000821015610ff25750600a919050565b506014919050565b60008281526004602090815260408083208151610120810183528154815260018201546001600160a01b031693810193909352600281018054859493840191906110439061185c565b80601f016020809104026020016040519081016040528092919081815260200182805461106f9061185c565b80156110bc5780601f10611091576101008083540402835291602001916110bc565b820191906000526020600020905b81548152906001019060200180831161109f57829003601f168201915b505050505081526020016003820180546110d59061185c565b80601f01602080910402602001604051908101604052809291908181526020018280546111019061185c565b801561114e5780601f106111235761010080835404028352916020019161114e565b820191906000526020600020905b81548152906001019060200180831161113157829003601f168201915b50505091835250506004820154602080830191909152600583015460ff811615156040808501919091526101009091046001600160a01b031660608401526006840154608084015260078401805482518185028101850190935280835260a090940193919290919060009084015b828210156112685783829060005260206000200180546111db9061185c565b80601f01602080910402602001604051908101604052809291908181526020018280546112079061185c565b80156112545780601f1061122957610100808354040283529160200191611254565b820191906000526020600020905b81548152906001019060200180831161123757829003601f168201915b5050505050815260200190600101906111bc565b5050505081525050905060005b81610100015151811015611311578360405160200161129491906119ea565b6040516020818303038152906040528051906020012082610100015182815181106112c1576112c16119c1565b60200260200101516040516020016112d991906119ea565b60405160208183030381529060405280519060200120036112ff57600192505050611318565b8061130981611830565b915050611275565b5060009150505b92915050565b828054828255906000526020600020908101928215611364579160200282015b82811115611364578251829061135490826118df565b509160200191906001019061133e565b50611370929150611374565b5090565b808211156113705760006113888282611391565b50600101611374565b50805461139d9061185c565b6000825580601f106113ad575050565b601f0160209004906000526020600020908101906108f191905b8082111561137057600081556001016113c7565b6000602082840312156113ed57600080fd5b5035919050565b634e487b7160e01b600052604160045260246000fd5b604051601f8201601f1916810167ffffffffffffffff81118282101715611433576114336113f4565b604052919050565b600082601f83011261144c57600080fd5b813567ffffffffffffffff811115611466576114666113f4565b611479601f8201601f191660200161140a565b81815284602083860101111561148e57600080fd5b816020850160208301376000918101602001919091529392505050565b6000806000606084860312156114c057600080fd5b833567ffffffffffffffff808211156114d857600080fd5b6114e48783880161143b565b94506020915081860135818111156114fb57600080fd5b6115078882890161143b565b94505060408601358181111561151c57600080fd5b8601601f8101881361152d57600080fd5b80358281111561153f5761153f6113f4565b8060051b61154e85820161140a565b918252828101850191858101908b84111561156857600080fd5b86850192505b838310156115a4578235868111156115865760008081fd5b6115948d898389010161143b565b835250918601919086019061156e565b809750505050505050509250925092565b80356001600160a01b03811681146115cc57600080fd5b919050565b600080604083850312156115e457600080fd5b6115ed836115b5565b946020939093013593505050565b60006020828403121561160d57600080fd5b611616826115b5565b9392505050565b6020808252825182820181905260009190848201906040850190845b8181101561165557835183529284019291840191600101611639565b50909695505050505050565b60006020828403121561167357600080fd5b813567ffffffffffffffff81111561168a57600080fd5b6116968482850161143b565b949350505050565b60005b838110156116b95781810151838201526020016116a1565b50506000910152565b600081518084526116da81602086016020860161169e565b601f01601f19169290920160200192915050565b8881526001600160a01b0388811660208301526101006040830181905260009161171a8483018b6116c2565b9150838203606085015261172e828a6116c2565b608085019890985295151560a084015250509190921660c082015260e00152949350505050565b60006101208b8352602060018060a01b03808d168286015282604086015261177f8386018d6116c2565b92508483036060860152611793838c6116c2565b925089608086015288151560a086015280881660c0860152508560e08501528382036101008501528185518084528284019150828160051b85010183880160005b8381101561180257601f198784030185526117f08383516116c2565b948601949250908501906001016117d4565b505080955050505050509a9950505050505050505050565b634e487b7160e01b600052601160045260246000fd5b6000600182016118425761184261181a565b5060010190565b808201808211156113185761131861181a565b600181811c9082168061187057607f821691505b602082108103610b0e57634e487b7160e01b600052602260045260246000fd5b601f8211156118da57600081815260208120601f850160051c810160208610156118b75750805b601f850160051c820191505b818110156118d6578281556001016118c3565b5050505b505050565b815167ffffffffffffffff8111156118f9576118f96113f4565b61190d81611907845461185c565b84611890565b602080601f831160018114611942576000841561192a5750858301515b600019600386901b1c1916600185901b1785556118d6565b600085815260208120601f198616915b8281101561197157888601518255948401946001909101908401611952565b508582101561198f5787850151600019600388901b60f8161c191681555b5050505050600190811b01905550565b6040815260006119b260408301856116c2565b90508260208301529392505050565b634e487b7160e01b600052603260045260246000fd5b818103818111156113185761131861181a565b600082516119fc81846020870161169e565b919091019291505056fea2646970667358221220bd1a1b8d464180f58d494c7b269ff98fd03d3dbb1f2e4480b97b3f25bac9195964736f6c63430008130033",
  "linkReferences": {},
  "deployedLinkReferences": {}
}