{
  "contractName": "GitCareBounty",
  "abi": [
    {
      "inputs": [],
      "stateMutability": "nonpayable",
      "type": "constructor"
    },
    {
      "anonymous": false,
      "inputs": [
        {
          "indexed": true,
          "internalType": "uint256",
          "name": "bountyId",
          "type": "uint256"
        },
        {
          "indexed": true,
          "internalType": "address",
          "name": "completer",
          "type": "address"
        },
        {
          "indexed": false,
          "internalType": "uint256",
          "name": "reward",
          "type": "uint256"
        }
      ],
      "name": "BountyCompleted",
      "type": "event"
    },
    {
      "anonymous": false,
      "inputs": [
        {
          "indexed": true,
          "internalType": "uint256",
          "name": "bountyId",
          "type": "uint256"
        },
        {
          "indexed": true,
          "internalType": "address",
          "name": "creator",
          "type": "address"
        },
        {
          "indexed": false,
          "internalType": "string",
          "name": "title",
          "type": "string"
        },
        {
          "indexed": false,
          "internalType": "uint256",
          "name": "reward",
          "type": "uint256"
        }
      ],
      "name": "BountyCreated",
      "type": "event"
    },
    {
      "anonymous": false,
      "inputs": [
        {
          "indexed": true,
          "internalType": "uint256",
          "name": "bountyId",
          "type": "uint256"
        },
        {
          "indexed": true,
          "internalType": "address",
          "name": "completer",
          "type": "address"
        },
        {
          "indexed": false,
          "internalType": "uint256",
          "name": "amount",
          "type": "uint256"
        }
      ],
      "name": "RewardDistributed",
      "type": "event"
    },
    {
      "inputs": [
        {
          "internalType": "uint256",
          "name": "",
          "type": "uint256"
        }
      ],
      "name": "bounties",
      "outputs": [
        {
          "internalType": "uint256",
          "name": "id",
          "type": "uint256"
        },
        {
          "internalType": "address",
          "name": "creator",
          "type": "address"
        },
        {
          "internalType": "string",
          "name": "title",
          "type": "string"
        },
        {
          "internalType": "string",
          "name": "description",
          "type": "string"
        },
        {
          "internalType": "uint256",
          "name": "reward",
          "type": "uint256"
        },
        {
          "internalType": "bool",
          "name": "isCompleted",
          "type": "bool"
        },
        {
          "internalType": "address",
          "name": "completedBy",
          "type": "address"
        },
        {
          "internalType": "uint256",
          "name": "createdAt",
          "type": "uint256"
        },
        {
          "internalType": "uint256",
          "name": "completedAt",
          "type": "uint256"
        }
      ],
      "stateMutability": "view",
      "type": "function"
    },
    {
      "inputs": [],
      "name": "bountyCount",
      "outputs": [
        {
          "internalType": "uint256",
          "name": "",
          "type": "uint256"
        }
      ],
      "stateMutability": "view",
      "type": "function"
    },
    {
      "inputs": [],
      "name": "owner",
      "outputs": [
        {
          "internalType": "address",
          "name": "",
          "type": "address"
        }
      ],
      "stateMutability": "view",
      "type": "function"
    },
    {
      "inputs": [],
      "name": "totalBountiesCreated",
      "outputs": [
        {
          "internalType": "uint256",
          "name": "",
          "type": "uint256"
        }
      ],
      "stateMutability": "view",
      "type": "function"
    },
    {
      "inputs": [],
      "name": "totalRewardsDistributed",
      "outputs": [
        {
          "internalType": "uint256",
          "name": "",
          "type": "uint256"
        }
      ],
      "stateMutability": "view",
      "type": "function"
    },
    {
      "inputs": [
        {
          "internalType": "address",
          "name": "",
          "type": "address"
        },
        {
          "internalType": "uint256",
          "name": "",
          "type": "uint256"
        }
      ],
      "name": "userBounties",
      "outputs": [
        {
          "internalType": "uint256",
          "name": "",
          "type": "uint256"
        }
      ],
      "stateMutability": "view",
      "type": "function"
    },
    {
      "inputs": [
        {
          "internalType": "address",
          "name": "",
          "type": "address"
        }
      ],
      "name": "userStats",
      "outputs": [
        {
          "internalType": "uint256",
          "name": "completedBounties",
          "type": "uint256"
        },
        {
          "internalType": "uint256",
          "name": "totalEarned",
          "type": "uint256"
        },
        {
          "internalType": "uint256",
          "name": "reputation",
          "type": "uint256"
        }
      ],
      "stateMutability": "view",
      "type": "function"
    },
    {
      "stateMutability": "payable",
      "type": "receive"
    },
    {
      "inputs": [
        {
          "internalType": "string",
          "name": "_title",
          "type": "string"
        },
        {
          "internalType": "string",
          "name": "_description",
          "type": "string"
        },
        {
          "internalType": "string[]",
          "name": "_tags",
          "type": "string[]"
        }
      ],
      "name": "createBounty",
      "outputs": [],
      "stateMutability": "payable",
      "type": "function"
    },
    {
      "inputs": [
        {
          "internalType": "uint256",
          "name": "_bountyId",
          "type": "uint256"
        }
      ],
      "name": "completeBounty",
      "outputs": [],
      "stateMutability": "nonpayable",
      "type": "function"
    },
    {
      "inputs": [
        {
          "internalType": "uint256",
          "name": "_bountyId",
          "type": "uint256"
        }
      ],
      "name": "getBounty",
      "outputs": [
        {
          "internalType": "uint256",
          "name": "id",
          "type": "uint256"
        },
        {
          "internalType": "address",
          "name": "creator",
          "type": "address"
        },
        {
          "internalType": "string",
          "name": "title",
          "type": "string"
        },
        {
          "internalType": "string",
          "name": "description",
          "type": "string"
        },
        {
          "internalType": "uint256",
          "name": "reward",
          "type": "uint256"
        },
        {
          "internalType": "bool",
          "name": "isCompleted",
          "type": "bool"
        },
        {
          "internalType": "address",
          "name": "completedBy",
          "type": "address"
        },
        {
          "internalType": "uint256",
          "name": "createdAt",
          "type": "uint256"
        },
        {
          "internalType": "uint256",
          "name": "completedAt",
          "type": "uint256"
        },
        {
          "internalType": "string[]",
          "name": "tags",
          "type": "string[]"
        }
      ],
      "stateMutability": "view",
      "type": "function"
    },
    {
      "inputs": [
        {
          "internalType": "address",
          "name": "_user",
          "type": "address"
        }
      ],
      "name": "getUserBounties",
      "outputs": [
        {
          "internalType": "uint256[]",
          "name": "",
          "type": "uint256[]"
        }
      ],
      "stateMutability": "view",
      "type": "function"
    },
    {
      "inputs": [
        {
          "internalType": "address",
          "name": "_user",
          "type": "address"
        }
      ],
      "name": "getUserStats",
      "outputs": [
        {
          "internalType": "uint256",
          "name": "completedBounties",
          "type": "uint256"
        },
        {
          "internalType": "uint256",
          "name": "totalEarned",
          "type": "uint256"
        },
        {
          "internalType": "uint256",
          "name": "reputation",
          "type": "uint256"
        }
      ],
      "stateMutability": "view",
      "type": "function"
    },
    {
      "inputs": [],
      "name": "getAllBounties",
      "outputs": [
        {
          "internalType": "uint256[]",
          "name": "",
          "type": "uint256[]"
        }
      ],
      "stateMutability": "view",
      "type": "function"
    },
    {
      "inputs": [],
      "name": "withdrawFunds",
      "outputs": [],
      "stateMutability": "nonpayable",
      "type": "function"
    }
  ],
  "bytecode": "0x608060405234801561001057600080fd5b50600080546001600160a01b031916331781556001819055600281905560035561158e8061003f6000396000f3fe6080604052600436106100e15760003560e01c80638a65d8741161007f578063ab643c0711610059578063ab643c0714610235578063dc2f87441461024a578063ee1725461461027f578063ee8c4bbf14610294576100e8565b80638a65d874146101de5780638da5cb5b146101fe578063918169f614610220576100e8565b80632b9234b9116100bb5780632b9234b9146101375780633e362c961461016d5780634e43603a146101825780636591a185146101b1576100e8565b8063139005ab146100ed57806321929a0b1461010f57806324600fc314610122576100e8565b366100e857005b600080fd5b3480156100f957600080fd5b5061010d610108366004611105565b6102ca565b005b61010d61011d366004611022565b6104cc565b34801561012e57600080fd5b5061010d6106f5565b34801561014357600080fd5b50610157610152366004610ff9565b61075c565b6040516101649190611326565b60405180910390f35b34801561017957600080fd5b5061015761078d565b34801561018e57600080fd5b506101a261019d366004610fd8565b610793565b60405161016493929190611467565b3480156101bd57600080fd5b506101d16101cc366004610fd8565b6107d7565b604051610164919061117c565b3480156101ea57600080fd5b506101a26101f9366004610fd8565b610844565b34801561020a57600080fd5b50610213610865565b6040516101649190611168565b34801561022c57600080fd5b50610157610874565b34801561024157600080fd5b506101d161087a565b34801561025657600080fd5b5061026a610265366004611105565b61092d565b6040516101649998979695949392919061132f565b34801561028b57600080fd5b50610157610a9d565b3480156102a057600080fd5b506102b46102af366004611105565b610aa3565b6040516101649a9998979695949392919061139c565b806000811180156102dd57506001548111155b6103025760405162461bcd60e51b81526004016102f9906112f7565b60405180910390fd5b600082815260046020526040902060050154829060ff16156103365760405162461bcd60e51b81526004016102f9906112c0565b6000838152600460208190526040808320600581018054600160ff1990911617610100600160a81b031916610100339081029190911790915542600783015592810154915190936108fc831502929190818181858888f193505050501580156103a3573d6000803e3d6000fd5b503360009081526005602052604081208054916103bf83611511565b9091555050600481015433600090815260056020526040812060010180549091906103eb9084906114a7565b909155505060048101546103fe90610db9565b33600090815260056020526040812060020180549091906104209084906114a7565b909155505060048101546003805460009061043c9084906114a7565b90915550506004810154604051339186917f285d0f935b4d6592b80efc46cc3d9eb3e93e27fe245f0a6c2b5b9a9d04800ee79161047891611326565b60405180910390a3336001600160a01b0316847fab7542bafced3da2d8c881cb2dd1de859fac7c20d3650d2902ad389a64e0888383600401546040516104be9190611326565b60405180910390a350505050565b600034116104ec5760405162461bcd60e51b81526004016102f990611223565b600083511161050d5760405162461bcd60e51b81526004016102f990611291565b600082511161052e5760405162461bcd60e51b81526004016102f99061125a565b6001805490600061053e83611511565b90915550506002805490600061055383611511565b909155505060408051610140810182526001805480835233602080850191825284860189815260608601899052346080870152600060a0870181905260c087018190524260e088015261010087018190526101208701899052938452600482529590922084518155905192810180546001600160a01b0319166001600160a01b039094169390931790925592518051929391926105f69260028501920190610e0b565b5060608201518051610612916003840191602090910190610e0b565b506080820151600482015560a082015160058201805460c085015160ff1990911692151592909217610100600160a81b0319166101006001600160a01b03909316830217905560e0830151600683015582015160078201556101208201518051610686916008840191602090910190610e8f565b5050336000818152600660209081526040808320600180548254808301845592865293909420019190915590549051919250907f64b439309954f148e681118e8f6556d39f6204a461e3307190a6928618ff2655906106e890879034906111c0565b60405180910390a3505050565b6000546001600160a01b0316331461071f5760405162461bcd60e51b81526004016102f9906111e2565b600080546040516001600160a01b03909116914780156108fc02929091818181858888f19350505050158015610759573d6000803e3d6000fd5b50565b6006602052816000526040600020818154811061077857600080fd5b90600052602060002001600091509150505481565b60015481565b6001600160a01b0316600090815260056020908152604091829020825160608101845281548082526001830154938201849052600290920154930183905292909190565b6001600160a01b03811660009081526006602090815260409182902080548351818402810184019094528084526060939283018282801561083757602002820191906000526020600020905b815481526020019060010190808311610823575b505050505090505b919050565b60056020526000908152604090208054600182015460029092015490919083565b6000546001600160a01b031681565b60025481565b6060600060015467ffffffffffffffff8111156108a757634e487b7160e01b600052604160045260246000fd5b6040519080825280602002602001820160405280156108d0578160200160208202803683370190505b50905060015b60015481116109275780826108ec6001836114bf565b8151811061090a57634e487b7160e01b600052603260045260246000fd5b60209081029190910101528061091f81611511565b9150506108d6565b50905090565b60046020526000908152604090208054600182015460028301805492936001600160a01b039092169261095f906114d6565b80601f016020809104026020016040519081016040528092919081815260200182805461098b906114d6565b80156109d85780601f106109ad576101008083540402835291602001916109d8565b820191906000526020600020905b8154815290600101906020018083116109bb57829003601f168201915b5050505050908060030180546109ed906114d6565b80601f0160208091040260200160405190810160405280929190818152602001828054610a19906114d6565b8015610a665780601f10610a3b57610100808354040283529160200191610a66565b820191906000526020600020905b815481529060010190602001808311610a4957829003601f168201915b505050506004830154600584015460068501546007909501549394919360ff821693506101009091046001600160a01b0316919089565b60035481565b600080606080600080600080600060608a600081118015610ac657506001548111155b610ae25760405162461bcd60e51b81526004016102f9906112f7565b60008c81526004602090815260408083208151610140810183528154815260018201546001600160a01b0316938101939093526002810180549192840191610b29906114d6565b80601f0160208091040260200160405190810160405280929190818152602001828054610b55906114d6565b8015610ba25780601f10610b7757610100808354040283529160200191610ba2565b820191906000526020600020905b815481529060010190602001808311610b8557829003601f168201915b50505050508152602001600382018054610bbb906114d6565b80601f0160208091040260200160405190810160405280929190818152602001828054610be7906114d6565b8015610c345780601f10610c0957610100808354040283529160200191610c34565b820191906000526020600020905b815481529060010190602001808311610c1757829003601f168201915b50505091835250506004820154602080830191909152600583015460ff811615156040808501919091526101009091046001600160a01b0316606084015260068401546080840152600784015460a084015260088401805482518185028101850190935280835260c090940193919290919060009084015b82821015610d58578382906000526020600020018054610ccb906114d6565b80601f0160208091040260200160405190810160405280929190818152602001828054610cf7906114d6565b8015610d445780601f10610d1957610100808354040283529160200191610d44565b820191906000526020600020905b815481529060010190602001808311610d2757829003601f168201915b505050505081526020019060010190610cac565b50505050815250509050806000015181602001518260400151836060015184608001518560a001518660c001518760e001518861010001518961012001519b509b509b509b509b509b509b509b509b509b5050509193959799509193959799565b600067016345785d8a0000821015610dd35750600161083f565b6706f05b59d3b20000821015610deb5750600561083f565b670de0b6b3a7640000821015610e035750600a61083f565b506014919050565b828054610e17906114d6565b90600052602060002090601f016020900481019282610e395760008555610e7f565b82601f10610e5257805160ff1916838001178555610e7f565b82800160010185558215610e7f579182015b82811115610e7f578251825591602001919060010190610e64565b50610e8b929150610ee8565b5090565b828054828255906000526020600020908101928215610edc579160200282015b82811115610edc5782518051610ecc918491602090910190610e0b565b5091602001919060010190610eaf565b50610e8b929150610efd565b5b80821115610e8b5760008155600101610ee9565b80821115610e8b576000610f118282610f1a565b50600101610efd565b508054610f26906114d6565b6000825580601f10610f385750610759565b601f0160209004906000526020600020908101906107599190610ee8565b80356001600160a01b038116811461083f57600080fd5b600082601f830112610f7d578081fd5b813567ffffffffffffffff811115610f9757610f97611542565b610faa601f8201601f191660200161147d565b818152846020838601011115610fbe578283fd5b816020850160208301379081016020019190915292915050565b600060208284031215610fe9578081fd5b610ff282610f56565b9392505050565b6000806040838503121561100b578081fd5b61101483610f56565b946020939093013593505050565b600080600060608486031215611036578081fd5b833567ffffffffffffffff8082111561104d578283fd5b61105987838801610f6d565b945060209150818601358181111561106f578384fd5b61107b88828901610f6d565b94505060408601358181111561108f578384fd5b8601601f8101881361109f578384fd5b8035828111156110b1576110b1611542565b6110be848583020161147d565b8181528481019350828501865b838110156110f4576110e28c888435880101610f6d565b865294860194908601906001016110cb565b505080955050505050509250925092565b600060208284031215611116578081fd5b5035919050565b60008151808452815b8181101561114257602081850181015186830182015201611126565b818111156111535782602083870101525b50601f01601f19169290920160200192915050565b6001600160a01b0391909116815260200190565b6020808252825182820181905260009190848201906040850190845b818110156111b457835183529284019291840191600101611198565b50909695505050505050565b6000604082526111d3604083018561111d565b90508260208301529392505050565b60208082526021908201527f4f6e6c79206f776e65722063616e2063616c6c20746869732066756e6374696f6040820152603760f91b606082015260800190565b6020808252601d908201527f526577617264206d7573742062652067726561746572207468616e2030000000604082015260600190565b6020808252601b908201527f4465736372697074696f6e2063616e6e6f7420626520656d7074790000000000604082015260600190565b6020808252601590820152745469746c652063616e6e6f7420626520656d70747960581b604082015260600190565b60208082526018908201527f426f756e747920616c726561647920636f6d706c657465640000000000000000604082015260600190565b602080825260159082015274109bdd5b9d1e48191bd95cc81b9bdd08195e1a5cdd605a1b604082015260600190565b90815260200190565b8981526001600160a01b0389811660208301526101206040830181905260009161135b8483018c61111d565b9150838203606085015261136f828b61111d565b608085019990995296151560a084015250509290931660c083015260e08201526101000152949350505050565b60006101408c8352602060018060a01b03808e16828601528260408601526113c68386018e61111d565b925084830360608601526113da838d61111d565b92508a608086015289151560a086015280891660c0860152508660e085015285610100850152838203610120850152818551808452828401915082838202850101838801865b8381101561144e57601f1987840301855261143c83835161111d565b94860194925090850190600101611420565b505080955050505050509b9a5050505050505050505050565b9283526020830191909152604082015260600190565b60405181810167ffffffffffffffff8111828210171561149f5761149f611542565b604052919050565b600082198211156114ba576114ba61152c565b500190565b6000828210156114d1576114d161152c565b500390565b6002810460018216806114ea57607f821691505b6020821081141561150b57634e487b7160e01b600052602260045260246000fd5b50919050565b60006000198214156115255761152561152c565b5060010190565b634e487b7160e01b600052601160045260246000fd5b634e487b7160e01b600052604160045260246000fdfea2646970667358221220da82492ccb787d291f7d363672edfa32215ae59a0f46fa2e5dfbebf813714f2964736f6c63430008000033",
  "immutableReferences": {},
  "source": "// SPDX-License-Identifier: MIT\npragma solidity ^0.8.0;\n\ncontract GitCareBounty {\n    struct Bounty {\n        uint256 id;\n        address creator;\n        string title;\n        string description;\n        uint256 reward;\n        bool isCompleted;\n        address completedBy;\n        uint256 createdAt;\n        uint256 completedAt;\n        string[] tags;\n    }\n    \n    struct UserStats {\n        uint256 completedBounties;\n        uint256 totalEarned;\n        uint256 reputation;\n    }\n    \n    address public owner;\n    uint256 public bountyCount;\n    uint256 public totalBountiesCreated;\n    uint256 public totalRewardsDistributed;\n    \n    mapping(uint256 => Bounty) public bounties;\n    mapping(address => UserStats) public userStats;\n    mapping(address => uint256[]) public userBounties;\n    \n    event BountyCreated(uint256 indexed bountyId, address indexed creator, string title, uint256 reward);\n    event BountyCompleted(uint256 indexed bountyId, address indexed completer, uint256 reward);\n    event RewardDistributed(uint256 indexed bountyId, address indexed completer, uint256 amount);\n    \n    modifier onlyOwner() {\n        require(msg.sender == owner, \"Only owner can call this function\");\n        _;\n    }\n    \n    modifier bountyExists(uint256 _bountyId) {\n        require(_bountyId > 0 && _bountyId <= bountyCount, \"Bounty does not exist\");\n        _;\n    }\n    \n    modifier notCompleted(uint256 _bountyId) {\n        require(!bounties[_bountyId].isCompleted, \"Bounty already completed\");\n        _;\n    }\n    \n    constructor() {\n        owner = msg.sender;\n        bountyCount = 0;\n        totalBountiesCreated = 0;\n        totalRewardsDistributed = 0;\n    }\n    \n    function createBounty(\n        string memory _title, \n        string memory _description, \n        string[] memory _tags\n    ) external payable {\n        require(msg.value > 0, \"Reward must be greater than 0\");\n        require(bytes(_title).length > 0, \"Title cannot be empty\");\n        require(bytes(_description).length > 0, \"Description cannot be empty\");\n        \n        bountyCount++;\n        totalBountiesCreated++;\n        \n        bounties[bountyCount] = Bounty({\n            id: bountyCount,\n            creator: msg.sender,\n            title: _title,\n            description: _description,\n            reward: msg.value,\n            isCompleted: false,\n            completedBy: address(0),\n            createdAt: block.timestamp,\n            completedAt: 0,\n            tags: _tags\n        });\n        \n        userBounties[msg.sender].push(bountyCount);\n        \n        emit BountyCreated(bountyCount, msg.sender, _title, msg.value);\n    }\n    \n    function completeBounty(uint256 _bountyId) external bountyExists(_bountyId) notCompleted(_bountyId) {\n        Bounty storage bounty = bounties[_bountyId];\n        \n        bounty.isCompleted = true;\n        bounty.completedBy = msg.sender;\n        bounty.completedAt = block.timestamp;\n        \n        // Transfer the reward\n        payable(msg.sender).transfer(bounty.reward);\n        \n        // Update user stats\n        userStats[msg.sender].completedBounties++;\n        userStats[msg.sender].totalEarned += bounty.reward;\n        userStats[msg.sender].reputation += calculateReputationPoints(bounty.reward);\n        \n        totalRewardsDistributed += bounty.reward;\n        \n        emit BountyCompleted(_bountyId, msg.sender, bounty.reward);\n        emit RewardDistributed(_bountyId, msg.sender, bounty.reward);\n    }\n    \n    function getBounty(uint256 _bountyId) public view bountyExists(_bountyId) returns (\n        uint256 id,\n        address creator,\n        string memory title,\n        string memory description,\n        uint256 reward,\n        bool isCompleted,\n        address completedBy,\n        uint256 createdAt,\n        uint256 completedAt,\n        string[] memory tags\n    ) {\n        Bounty memory bounty = bounties[_bountyId];\n        return (\n            bounty.id,\n            bounty.creator,\n            bounty.title,\n            bounty.description,\n            bounty.reward,\n            bounty.isCompleted,\n            bounty.completedBy,\n            bounty.createdAt,\n            bounty.completedAt,\n            bounty.tags\n        );\n    }\n    \n    function getUserBounties(address _user) public view returns (uint256[] memory) {\n        return userBounties[_user];\n    }\n    \n    function getUserStats(address _user) public view returns (\n        uint256 completedBounties,\n        uint256 totalEarned,\n        uint256 reputation\n    ) {\n        UserStats memory stats = userStats[_user];\n        return (\n            stats.completedBounties,\n            stats.totalEarned,\n            stats.reputation\n        );\n    }\n    \n    function calculateReputationPoints(uint256 _reward) private pure returns (uint256) {\n        // Reputation points based on reward amount\n        if (_reward < 0.1 ether) return 1;\n        if (_reward < 0.5 ether) return 5;\n        if (_reward < 1 ether) return 10;\n        return 20;\n    }\n    \n    function getAllBounties() public view returns (uint256[] memory) {\n        uint256[] memory result = new uint256[](bountyCount);\n        for (uint256 i = 1; i <= bountyCount; i++) {\n            result[i - 1] = i;\n        }\n        return result;\n    }\n    \n    // Emergency function to withdraw funds (only owner)\n    function withdrawFunds() external onlyOwner {\n        payable(owner).transfer(address(this).balance);\n    }\n    \n    // Fallback function to receive ETH\n    receive() external payable {}\n}",
  "sourcePath": "/home/megatron/Documents/smar/avalanche-bounty-contract/contracts/GitCareBounty.sol",
  "compiler": {
    "name": "solc",
    "version": "0.8.0+commit.c7dfd78e.Emscripten.clang"
  },
  "schemaVersion": "3.4.16",
  "updatedAt": "2025-09-20T16:25:24.534Z",
  "devdoc": {
    "kind": "dev",
    "methods": {},
    "version": 1
  },
  "userdoc": {
    "kind": "user",
    "methods": {},
    "version": 1
  }
}